{
  "contractName": "Storage",
  "abi": [
    {
      "inputs": [
        {
          "internalType": "uint256",
          "name": "token",
          "type": "uint256"
        },
        {
          "internalType": "string",
          "name": "data",
          "type": "string"
        }
      ],
      "name": "push",
      "outputs": [],
      "stateMutability": "nonpayable",
      "type": "function"
    },
    {
      "inputs": [
        {
          "internalType": "uint256",
          "name": "token",
          "type": "uint256"
        },
        {
          "internalType": "uint256",
          "name": "index",
          "type": "uint256"
        },
        {
          "internalType": "string",
          "name": "data",
          "type": "string"
        }
      ],
      "name": "storeData",
      "outputs": [],
      "stateMutability": "nonpayable",
      "type": "function"
    },
    {
      "inputs": [
        {
          "internalType": "uint256",
          "name": "token",
          "type": "uint256"
        }
      ],
      "name": "getData",
      "outputs": [
        {
          "internalType": "string[]",
          "name": "",
          "type": "string[]"
        }
      ],
      "stateMutability": "view",
      "type": "function",
      "constant": true
    },
    {
      "inputs": [
        {
          "internalType": "uint256",
          "name": "num",
          "type": "uint256"
        }
      ],
      "name": "store",
      "outputs": [],
      "stateMutability": "nonpayable",
      "type": "function"
    },
    {
      "inputs": [],
      "name": "retrieve",
      "outputs": [
        {
          "internalType": "uint256",
          "name": "",
          "type": "uint256"
        }
      ],
      "stateMutability": "view",
      "type": "function",
      "constant": true
    }
  ],
  "bytecode": "0x608060405234801561001057600080fd5b506105a9806100206000396000f3fe608060405234801561001057600080fd5b5060043610610073577c010000000000000000000000000000000000000000000000000000000060003504630178fe3f81146100785780632e64cec1146100a15780636057361d146100b6578063e1b549c3146100cb578063f4e03469146100de575b600080fd5b61008b6100863660046103a5565b6100f1565b6040516100989190610450565b60405180910390f35b6100a96101dd565b60405161009891906104e7565b6100c96100c43660046103a5565b6101e3565b005b6100c96100d93660046103bd565b6101e8565b6100c96100ec366004610402565b61021e565b606060016000838152602001908152602001600020805480602002602001604051908101604052809291908181526020016000905b828210156101d2578382906000526020600020018054610145906104f0565b80601f0160208091040260200160405190810160405280929190818152602001828054610171906104f0565b80156101be5780601f10610193576101008083540402835291602001916101be565b820191906000526020600020905b8154815290600101906020018083116101a157829003601f168201915b505050505081526020019060010190610126565b505050509050919050565b60005490565b600055565b600082815260016020818152604083208054928301815583529182902083516102199391909201919084019061028b565b505050565b6000838152600160205260409020805482919084908110610268577f4e487b7100000000000000000000000000000000000000000000000000000000600052603260045260246000fd5b90600052602060002001908051906020019061028592919061028b565b50505050565b828054610297906104f0565b90600052602060002090601f0160209004810192826102b957600085556102ff565b82601f106102d257805160ff19168380011785556102ff565b828001600101855582156102ff579182015b828111156102ff5782518255916020019190600101906102e4565b5061030b92915061030f565b5090565b5b8082111561030b5760008155600101610310565b600082601f830112610334578081fd5b813567ffffffffffffffff8082111561034f5761034f610544565b604051601f8301601f19168101602001828111828210171561037357610373610544565b60405282815284830160200186101561038a578384fd5b82602086016020830137918201602001929092529392505050565b6000602082840312156103b6578081fd5b5035919050565b600080604083850312156103cf578081fd5b82359150602083013567ffffffffffffffff8111156103ec578182fd5b6103f885828601610324565b9150509250929050565b600080600060608486031215610416578081fd5b8335925060208401359150604084013567ffffffffffffffff81111561043a578182fd5b61044686828701610324565b9150509250925092565b6000602080830181845280855180835260408601915060408482028701019250838701855b828110156104da57878503603f1901845281518051808752885b818110156104aa578281018901518882018a0152880161048f565b818111156104ba578989838a0101525b50601f01601f191695909501860194509285019290850190600101610475565b5092979650505050505050565b90815260200190565b60028104600182168061050457607f821691505b6020821081141561053e577f4e487b7100000000000000000000000000000000000000000000000000000000600052602260045260246000fd5b50919050565b7f4e487b7100000000000000000000000000000000000000000000000000000000600052604160045260246000fdfea26469706673582212208ae97d8955af7704c25f6ec6f8996469a9563309937bc36039530431f4c9d58e64736f6c63430008000033",
  "immutableReferences": {},
  "source": "// SPDX-License-Identifier: GPL-3.0\n\npragma solidity >=0.7.0 <0.9.0;\n\ncontract Storage {\n\n    uint256 number;\n    mapping(uint256 => string[]) private email;\n\n    function push(uint256 token, string memory data) public {\n        email[token].push(data);\n    }\n\n    function storeData(uint256 token,uint256 index, string memory data) public {\n        email[token][index] = data;\n    }\n\n    function getData(uint256 token) public view returns(string[] memory){\n        return email[token];\n    }\n\n    function store(uint256 num) public {\n        number = num;\n    }\n\n    function retrieve() public view returns (uint256){\n        return number;\n    }\n}",
  "sourcePath": "/Users/rakoon/Documents/Projects/frxswap/contracts/Storage.sol",
  "compiler": {
    "name": "solc",
    "version": "0.8.0+commit.c7dfd78e.Emscripten.clang"
  },
  "schemaVersion": "3.4.6",
  "updatedAt": "2022-07-15T10:00:16.715Z",
  "networkType": "ethereum",
  "devdoc": {
    "kind": "dev",
    "methods": {},
    "version": 1
  },
  "userdoc": {
    "kind": "user",
    "methods": {},
    "version": 1
  }
}